:0400000061EF01F0BB
:1000080000C018F001C017F002C016F003C015F0C8
:10001800F2A457D0C20ED66EF2941DA81AD0010EC3
:100028002224006E000E2320016E000E2420026E92
:10003800000E2520036E00C022F001C023F002C08C
:1000480024F003C025F02250231024102510D8B422
:100058001D9826A81AD0010E2B24006E000E2C2005
:10006800016E000E2D20026E000E2E20036E00C0C1
:100078002BF001C02CF002C02DF003C02EF02B5045
:100088002C102D102E10D8B426982FA81AD0010E97
:100098003424006E000E3520016E000E3620026EEC
:1000A800000E3720036E00C034F001C035F002C0E6
:1000B80036F003C037F03450351036103710D8B446
:1000C8002F9818C000F017C001F016C002F015C034
:0400D80003F0110020
:0A00DC003CC0E9FF3DC0EAFF12003E
:1000E600FADFFDCFECFFFECFECFFFFCFECFF19866A
:0400F60006001200EE
:1000FA00199A3CC0E1FF3DC0E2FFE6984350441024
:10010A004510461046E0FF0E4318006EFF0E4418D5
:10011A00016EFF0E4518026EFF0E4618036E00C0F0
:10012A0043F001C044F002C045F003C046F0010E9E
:10013A000024046E000E0120056E000E0220066ED9
:10014A00000E0320076E04C043F005C044F006C049
:10015A0045F007C046F03CC000F03DC001F0050E76
:10016A000024E16E000E0120E26E04C0E6FF05C025
:10017A00E6FF06C0E6FF07C0E6FF3CC0E1FF3DC060
:10018A00E2FFE6863CC0E1FF3DC0E2FFE68819884F
:04019A0019861200B0
:10019E000F01386B396B3A6B3B6B3C6B956A836A1C
:0201AE0012003D
:1001B00095DFEECF19F00500EE50FD6EEE50FE6EAD
:0801C000EE50FF6E1200120068
:1001C800440ED56EC20ED66EF28EF28CD08EF28AA6
:0601D800F184D58E120037
:1001DE001C921D0E016E000E026E1B6A01C0E9FF1D
:1001EE0002C0EAFFEECF00F000BC2AD03E8C3E8665
:1001FE00010E0124E16E000E0220E26E3FC0E6FF0A
:10020E0040C0E6FF41C0E6FF42C0E6FF050E0124F6
:10021E00E16E000E0220E26EE66AE66AE66AE66AC1
:10022E0001C0E1FF02C0E2FF3EC0E6FF02503D18F2
:10023E0002E13C50011802E13EC019F01C9209D0B7
:10024E00090E0126000E02221B2A030E1B5CC6E3BA
:04025E001C821200EC
:100262008C742C0E436E010E446E000E456E466E6B
:0A02720043DF38DF0000F4D712006C
:10027C008C722C0E436E010E446E000E456E466E53
:0A028C0036DF2BDF0000F4D712006C
:100296001C6A2F0E3A6E000E3B6E1D9C269C2F9CF0
:0202A600120044
:1002A8008C702C0E436E010E446E000E456E466E29
:0A02B80020DF15DF0000F4D712006C
:1002C200630ED36EE7DF6ADF7EDF3E6AA80E3F6E03
:1002D200020E406E000E416E000E426E7FDF3E6ADD
:1002E2007C0E3F6E020E406E000E416E000E426E9C
:1002F20075DF3E6A620E3F6E020E406E000E416E68
:10030200000E426E6BDFF28ED0BEF28C1C981C8601
:10031200080E1A6E3AC03CF03BC03DF0000E3D5C48
:1003220002E12F0E3C5C05E31D0E3C6E000E3D6E9D
:100332000AD0090E3C24006E000E3D20016E00C062
:100342003CF001C03DF03CC0E9FF3DC0EAFF010EB8
:10035200006E190EE16E000EE26EEECFE6FF0006B1
:10036200FCE119AC03D019BE01D001D02ED019C0C6
:1003720000F0070E001600C01BF01A501B5C01E3D0
:1003820024D019B60CD013DFA8DED70EEF16280E34
:100392001914006E0050EF121CB601D03BD019A800
:1003A20003D019BA01D011D019A60FD01C883CC0B5
:1003B20038F03DC039F019C000F0070E001600C039
:1003C2001AF01A50000A01E107D03D503B1802E131
:1003D2003A503C1801E0A2D71CA81CD01C9638C089
:1003E2003CF039C03DF03CC03AF03DC03BF03CC06F
:1003F200E9FF3DC0EAFF010E006E190EE16E000E2C
:10040200E26EEECFE6FF0006FCE119AC03D019BEA6
:0804120001D0B9D77BD7FFD759
:020000040030CA
:0D000100281F3CFFBD81FF0FC00FE00F4026
:00000001FF
