:04000000F5EF03F025
:1000080000C018F001C017F002C016F003C015F0C8
:10001800F2A473D0C20ED66EF29423A81AD0010EA1
:100028002824006E000E2920016E000E2A20026E80
:10003800000E2B20036E00C028F001C029F002C07A
:100048002AF003C02BF0285029102A102B10D8B4FE
:1000580023982CA81AD0010E3124006E000E3220ED
:10006800016E000E3320026E000E3420036E00C0B5
:1000780031F001C032F002C033F003C034F0315027
:10008800321033103410D8B42C9835A81AD0010E79
:100098003A24006E000E3B20016E000E3C20026EDA
:1000A800000E3D20036E00C03AF001C03BF002C0D4
:1000B8003CF003C03DF03A503B103C103D10D8B422
:1000C80035983EA81AD0010E4324006E000E442035
:1000D800016E000E4520026E000E4620036E00C021
:1000E80043F001C044F002C045F003C046F043505D
:1000F800441045104610D8B43E9818C000F017C0F8
:0C01080001F016C002F015C003F0110059
:0A011400210E0D6E0D2EFED7120015
:10011E000F0E0C6E470E0D6E0D2EFED70C2EFCD74D
:06012E00000000001200B9
:06013400000000001200B3
:10013A00000174BF02D0819601D0818674BD02D0BD
:10014A00819401D0818474BB02D0819201D08182D2
:10015A0074B902D0819001D0818020B002D0818808
:10016A0001D08198818AE1DF819A74B702D08196A1
:10017A0001D0818674B502D0819401D0818474B390
:10018A0002D0819201D0818274B102D0819001D0D3
:10019A00818020B002D0818801D08198818AC5DF10
:0E01AA00819A20A002D0B6DF01D0AFDF120094
:0A01B80065C0E9FF66C0EAFF12000F
:1001C200086A096A100E0C6E0134083609360450AA
:1001D200085E0550D8A0053C095ED8B007D004508F
:1001E20008260550D8B0053C0926D89000360136BD
:0601F2000C2EEAD71200FA
:0C01F800209073C074F09DDF2080120086
:0C0204000E0E0D6E0D2EFED70000120035
:1002100006005190D1DFFDCFECFFFECFECFFFFCF0A
:0E022000ECFF229622A8229A21B0228A120018
:10022E00C26A191C006E0050C1160F0EC012C08E8D
:10023E006CC000F000360090003600900050C212E4
:10024E00C280D9DFC282C2A201D0FDD7C4CF01F0D5
:10025E00006A00C06DF001C06EF0C3500012000EB7
:10026E00011200C06DF001C06EF0C290000E0014BD
:10027E00026E0150800B036E000E031802E1000E99
:10028E00021803E000016D6B6E6B6DC000F06EC066
:04029E0001F0120059
:0602A200216AB5DF120025
:1002A800229A65C0E1FF66C0E2FFE69800016C5142
:1002B8006D116E116F1146E0FF0E6C19006EFF0E86
:1002C8006D19016EFF0E6E19026EFF0E6F19036E27
:1002D80000C06CF001C06DF002C06EF003C06FF09A
:1002E800010E0024046E000E0120056E000E02208F
:1002F800066E000E0320076E04C06CF005C06DF09A
:1003080006C06EF007C06FF065C000F066C001F06F
:10031800050E0024E16E000E0120E26E04C0E6FF27
:1003280005C0E6FF06C0E6FF07C0E6FF65C0E1FFBF
:1003380066C0E2FFE68665C0E1FF66C0E2FFE688C8
:060348002288228612004B
:10034E0034DFFDCFECFFFECFECFFFFCFECFF2286BC
:04035E000600120083
:10036200519A29DF00016C5307E022A603D022989C
:10037200EF980BD0228601D0229622B805D022AA6D
:0C03820003D02286518A01D00600120030
:10038E0010D0800E00016C6F1AD0C00E6C6F17D09B
:10039E00940E6C6F14D0D40E6C6F11D0800E6C6FE7
:1003AE000ED000016C51010AECE06C51020AEDE036
:1003BE006C51030AEDE06C51040AEDE0EFD76D05C8
:1003CE00006E6C51002600C06CF000C074F0AEDE02
:1003DE002090706B70516E25E96E000E6F21EA6EE3
:1003EE00EE520BE070516E25E96E000E6F21EA6E33
:0E03FE00EECF73F0FADE702BEDD720801200E8
:10040C000001706B050E705D0AE270516E25E16E95
:10041C00000E6F21E26E200EE66E702BF3D770513A
:10042C006E25E16E000E6F21E26EE66A7007705168
:10043C006E25716F000E6F21726F0A0E046E000E26
:10044C00056E6CC000F06DC001F0B5DE08C000F0A8
:10045C0009C001F0300E002671C0E1FF72C0E2FF4E
:10046C0000C0E6FF0A0E046E000E056E6CC000F0B4
:10047C006DC001F0A0DE00C06CF001C06DF0000E8C
:10048C00011802E1000E001801E102D07007CFD76D
:02049C0012004C
:10049E00566A000E576E000E586E0E0E00016C6FEF
:1004AE00BFDE00C06CF001C06DF0470E00016E6F34
:1004BE00000E6F6FA4DF56A012D0ECDE0000010E0E
:1004CE00561400016C6F6C53010ED8A4000E6C6FA5
:1004DE006C51000A000ED8A4010E6C6F3BDF010EAA
:1004EE00566E470E576E000E586ED4DE0000010E8B
:1004FE00561400016C6F6C53010ED8A4000E6C6F75
:10050E006C51000A000ED8A4010E6C6F23DF320E60
:10051E006C6F000E6D6F6E6F6F6FBFDE11DF0000C0
:04052E00BCD7120024
:100532008C702C0E00016C6F010E6D6F000E6E6FD1
:0C0542006F6FB1DE03DF0000F3D7120082
:10054E00939A93989390939293949396819A819879
:10055E008196819481928190DBDDDADDD9DD818215
:10056E008180818AE0DD819AD3DD818ADCDD819A0A
:10057E00CFDD818AD8DD819ACBDD8190818AD3DD72
:10058E00819AC6DD818ACFDD819A81928186818AA8
:10059E00CADD819ABDDD81968180818AC4DD819A12
:1005AE008190818AC0DD819AB3DD818ABCDD819A1A
:1005BE008180818AB8DD819AABDD8190818AB3DD3D
:1005CE00819A8186818481828180818AACDD819A43
:0605DE009FDD20801200E9
:1005E400FF0E1A6EFF0E1B6EFF0E1C6EFF0E1D6EAD
:1005F400C26A191C006E0050C1160F0EC012C08EC4
:04060400C28012009E
:100608005192230E016E000E026E216A01C0E9FFAD
:1006180002C0EAFFEECF00F000BC2BD00001678DCE
:100628006787010E0124E16E000E0220E26E68C0A9
:10063800E6FF69C0E6FF6AC0E6FF6BC0E6FF050E8D
:100648000124E16E000E0220E26EE66AE66AE66ABE
:10065800E66A01C0E1FF02C0E2FF67C0E6FF0250A0
:10066800661902E16551011802E167C022F0519252
:1006780009D0090E0126000E0222212A040E215C4F
:06068800C5E351821200DF
:10068E000900F5CFE6FF0006FBE10106F9E11200D5
:10069E008CDDEECF22F00500EE50FD6EEE50FE6EBC
:0806AE00EE50FF6E1200120075
:1006B60056A00FD057C067F058C068F0566A010EB2
:1006C60000016C6F010E6D6F67C06EF068C06FF051
:1006D6005BDE53A00FD0000154C067F055C068F030
:1006E600536A020E6C6F010E6D6F67C06EF068C0C4
:1006F6006FF04ADE0001140E6C6F000E6D6F6E6FA8
:0C0706006F6FCFDD21DE0000D3D71200A2
:10071200536A000E546E000E556E0F0E00016C6F80
:1007220085DD00C06CF001C06DF05B0E00016E6FE4
:10073200000E6F6F6ADE53A012D0B2DD0000010E10
:10074200531400016C6F6C53010ED8A4000E6C6F31
:100752006C51000A000ED8A4010E6C6F01DE010E6E
:10076200536E5B0E546E000E556E9ADD0000010E44
:10077200531400016C6F6C53010ED8A4000E6C6F01
:100782006C51000A000ED8A4010E6C6FE9DD320E26
:100792006C6F000E6D6F6E6F6F6F85DDD7DD0000C1
:0407A200BCD71200AE
:1007A600516A3E0E596E000E5A6E239C2C9C359C47
:0407B6003E9C120053
:1007BA00440ED56EC20ED66EF28EF28CD08EF28AAE
:0607CA00F184D58E12003F
:1007D0000F01386B396B3A6B3B6B3C6B94843A85F9
:0A07E00094863A87956A836A120036
:1007EA00BBEC04F0630ED36ED9DFEDDFE1DFF5DE9B
:1007FA00A9DE010E0001746F9BDC0C0E746F98DC8D
:10080A00676B320E686F050E696F000E6A6F000E15
:10081A006B6FF5DE0001676B9E0E686F040E696FE1
:10082A00000E6A6F000E6B6FEADE0001676B120E34
:10083A00686F070E696F000E6A6F000E6B6FDFDE5E
:10084A000001676BB60E686F060E696F000E6A6F5D
:10085A00000E6B6FD4DEF28ED0BEF28C51985186A8
:10086A00080E526E59C065F05AC066F0000E0001BB
:10087A00665D02E13E0E655D05E3230E656F000EBF
:10088A00666F0AD0090E6525006E000E6621016E9C
:10089A0000C065F001C066F065C0E9FF66C0EAFF06
:1008AA00010E006E220EE16E000EE26EEECFE6FF42
:1008BA000006FCE122AC03D022BE01D001D02ED02A
:1008CA0022C000F0070E001600C021F05250215C31
:1008DA0001E324D022B60CD0DDDE69DCD70EEF1698
:1008EA00280E2214006E0050EF1251B601D03CD0EF
:1008FA0022A803D022BA01D011D022A60FD0518843
:10090A0065C01EF066C01FF022C000F0070E001678
:10091A0000C052F05250000A01E108D000016651AD
:10092A005A1802E15950651901E0A0D751A81CD004
:10093A0051961EC065F01FC066F065C059F066C0CA
:10094A005AF065C0E9FF66C0EAFF010E006E220E8A
:10095A00E16E000EE26EEECFE6FF0006FCE122AC8D
:0C096A0003D022BE01D0B8D779D7FFD748
:1009760010EE19F0010E006E010E016E060EF66EF7
:0E098600000EF76E000EF86E47EC03F0120044
:010006000FEA
:020000040030CA
:0D000100231F3CFFBF81FF0FC00FE00F4029
:00000001FF
