:0400000025EF02F0F6
:1000080000C018F001C017F002C016F003C015F0C8
:10001800F2A473D0C20ED66EF29423A81AD0010EA1
:100028002824006E000E2920016E000E2A20026E80
:10003800000E2B20036E00C028F001C029F002C07A
:100048002AF003C02BF0285029102A102B10D8B4FE
:1000580023982CA81AD0010E3124006E000E3220ED
:10006800016E000E3320026E000E3420036E00C0B5
:1000780031F001C032F002C033F003C034F0315027
:10008800321033103410D8B42C9835A81AD0010E79
:100098003A24006E000E3B20016E000E3C20026EDA
:1000A800000E3D20036E00C03AF001C03BF002C0D4
:1000B8003CF003C03DF03A503B103C103D10D8B422
:1000C80035983EA81AD0010E4324006E000E442035
:1000D800016E000E4520026E000E4620036E00C021
:1000E80043F001C044F002C045F003C046F043505D
:1000F800441045104610D8B43E9818C000F017C0F8
:0C01080001F016C002F015C003F0110059
:0A0114001AC0E9FF1BC0EAFF120049
:10011E0006001D90F8DFFDCFECFFFECFECFFFFCF0A
:0E012E00ECFF479647A8479A20B0478A120078
:10013C00479A1AC0E1FF1BC0E2FFE6984D504E10E3
:10014C004F10501046E0FF0E4D18006EFF0E4E186B
:10015C00016EFF0E4F18026EFF0E5018036E00C09A
:10016C004DF001C04EF002C04FF003C050F0010E34
:10017C000024046E000E0120056E000E0220066E97
:10018C00000E0320076E04C04DF005C04EF006C0F3
:10019C004FF007C050F01AC000F01BC001F0050E64
:1001AC000024E16E000E0120E26E04C0E6FF05C0E3
:1001BC00E6FF06C0E6FF07C0E6FF1AC0E1FF1BC062
:1001CC00E2FFE6861AC0E1FF1BC0E2FFE688478823
:0401DC004786120040
:1001E00099DFFDCFECFFFECFECFFFFCFECFF4786A2
:0401F00006001200F3
:0601F400206A93DF1200F7
:1001FA001D9A8BDF4D5207E047A603D04798EF9828
:10020A000BD0478601D0479647B805D047AA03D0F6
:0A021A0047861D8A01D0060012007D
:10022400E7DF0000020E1C14006E000E000B016ECE
:10023400000E011802E1000E0018000ED8A4010EF1
:100244004D6ED9DFFD0E1C168C722C0E4D6E010EF8
:100254004E6E000E4F6E506E6FDFC0DF0000FD0E5D
:080264001C161C84DDD71200FA
:10026C00C3DF0000040E1C14006E000E000B016EA8
:10027C00000E011802E1000E0018000ED8A4010EA9
:10028C004D6EB5DFFB0E1C168C742C0E4D6E010ED4
:10029C004E6E000E4F6E506E4BDF9CDF0000FB0E5F
:0802AC001C161C80DDD71200B6
:1002B4001D92230E016E000E026E206A01C0E9FF3A
:1002C40002C0EAFFEECF00F000BC2AD0488C48867A
:1002D400010E0124E16E000E0220E26E49C0E6FF29
:1002E4004AC0E6FF4BC0E6FF4CC0E6FF050E012402
:1002F400E16E000E0220E26EE66AE66AE66AE66AEB
:1003040001C0E1FF02C0E2FF48C0E6FF02501B1833
:1003140002E11A50011802E148C047F01D9209D0C9
:10032400090E0126000E0222202A040E205CC6E3D8
:040334001D82120014
:10033800EDDEEECF47F00500EE50FD6EEE50FE6E9E
:08034800EE50FF6E12001200DE
:100350001C8050DF0000010E1C14006E000E000B0C
:10036000016E000E011802E1000E0018000ED8A464
:10037000010E4D6E42DFFE0E1C168C702C0E4D6E63
:10038000010E4E6E000E4F6E506ED8DE29DF00005B
:0A039000FE0E1C161C82DDD71200C1
:10039A00440ED56EC20ED66EF28EF28CD08EF28AD2
:0603AA00F184D58E120063
:1003B00021DF000082B002D0D88001D0D890000E9A
:1003C000D8B0010E4D6E4D50000A000ED8A4010E9B
:1003D0004D6E13DF280E4D6E000E4E6E4F6E506E3A
:1003E000ADDEFEDE000082B0E3D7837E03DF0000D7
:1003F000000E82B0010E4D6E4D50000A000ED8A4C2
:10040000010E4D6EFADE280E4D6E000E4E6E4F6ED2
:10041000506E94DEE5DE000082A0E8D7C9D7120056
:100420001D6A3E0E1E6E000E1F6E1C6A239C2C9CC5
:06043000359C3E9C120009
:100436000F01386B396B3A6B3B6B3C6B9480956A5A
:04044600836A1200B3
:10044A00630ED36EE8DFF2DFA3DF486A500E496E0F
:10045A00030E4A6E000E4B6E000E4C6E26DF486A83
:10046A00240E496E020E4A6E000E4B6E000E4C6E42
:10047A001CDF486A6C0E496E020E4A6E000E4B6E05
:10048A00000E4C6E12DF486AB00E496E030E4A6EB9
:10049A00000E4B6E000E4C6E08DF1C901C921C94D2
:1004AA00F28ED0BEF28C1D981D86080E196E1EC0E3
:1004BA001AF01FC01BF0000E1B5C02E13E0E1A5C14
:1004CA0005E3230E1A6E000E1B6E0AD0090E1A24BB
:1004DA00006E000E1B20016E00C01AF001C01BF056
:1004EA001AC0E9FF1BC0EAFF010E006E470EE16E5B
:1004FA00000EE26EEECFE6FF0006FCE147AC03D049
:10050A0047BE01D001D02ED047C000F0070E00161A
:10051A0000C020F01950205C01E324D047B60CD06B
:10052A0006DFF3DDD70EEF16280E4714006E0050D3
:10053A00EF121DB601D03BD047A803D047BA01D06D
:10054A0011D047A60FD01D881AC021F01BC022F077
:10055A0047C000F0070E001600C019F01950000A33
:10056A0001E107D01B501F1802E11E501A1801E0C2
:10057A00A2D71DA81CD01D9621C01AF022C01BF0BC
:10058A001AC01EF01BC01FF01AC0E9FF1BC0EAFF09
:10059A00010E006E470EE16E000EE26EEECFE6FF30
:1005AA000006FCE147AC03D047BE01D0B9D77BD7E0
:0205BA00FFD769
:020000040030CA
:0D000100231F3CFFBF81FF0FC00FE00F4029
:00000001FF
