:04000000CFEF01F04D
:1000080000C018F001C017F002C016F003C015F0C8
:10001800F2A457D0C20ED66EF29423A81AD0010EBD
:100028002824006E000E2920016E000E2A20026E80
:10003800000E2B20036E00C028F001C029F002C07A
:100048002AF003C02BF0285029102A102B10D8B4FE
:1000580023982CA81AD0010E3124006E000E3220ED
:10006800016E000E3320026E000E3420036E00C0B5
:1000780031F001C032F002C033F003C034F0315027
:10008800321033103410D8B42C9835A81AD0010E79
:100098003A24006E000E3B20016E000E3C20026EDA
:1000A800000E3D20036E00C03AF001C03BF002C0D4
:1000B8003CF003C03DF03A503B103C103D10D8B422
:1000C800359818C000F017C001F016C002F015C02E
:0400D80003F0110020
:0A00DC001AC0E9FF1BC0EAFF120082
:1000E60006001D90F8DFFDCFECFFFECFECFFFFCF43
:0E00F600ECFF3E963EA83E9A20B03E8A1200D5
:100104003E9A1AC0E1FF1BC0E2FFE6984450451036
:100114004610471046E0FF0E4418006EFF0E4518C7
:10012400016EFF0E4618026EFF0E4718036E00C0E4
:1001340044F001C045F002C046F003C047F0010E90
:100144000024046E000E0120056E000E0220066ECF
:10015400000E0320076E04C044F005C045F006C03D
:1001640046F007C047F01AC000F01BC001F0050EAE
:100174000024E16E000E0120E26E04C0E6FF05C01B
:10018400E6FF06C0E6FF07C0E6FF1AC0E1FF1BC09A
:10019400E2FFE6861AC0E1FF1BC0E2FFE6883E8864
:0401A4003E86120081
:1001A80099DFFDCFECFFFECFECFFFFCFECFF3E86E3
:0401B800060012002B
:0601BC00206A93DF12002F
:1001C2001D9A8BDF445207E03EA603D03E98EF987B
:1001D2000BD03E8601D03E963EB805D03EAA03D053
:0A01E2003E861D8A01D006001200BF
:1001EC00E7DF0000020E1C14006E000E000B016E07
:1001FC00000E011802E1000E0018000ED8A4010E2A
:10020C00446ED9DFFD0E1C168C722C0E446E010E42
:10021C00456E000E466E476E6FDFC0DF0000FD0EB0
:08022C001C161C84DDD7120032
:10023400C3DF0000040E1C14006E000E000B016EE0
:10024400000E011802E1000E0018000ED8A4010EE1
:10025400446EB5DFFB0E1C168C742C0E446E010E1E
:10026400456E000E466E476E4BDF9CDF0000FB0EB2
:080274001C161C80DDD71200EE
:10027C001D92230E016E000E026E206A01C0E9FF72
:10028C0002C0EAFFEECF00F000BC2AD03F8C3F86C4
:10029C00010E0124E16E000E0220E26E40C0E6FF6A
:1002AC0041C0E6FF42C0E6FF43C0E6FF050E012455
:1002BC00E16E000E0220E26EE66AE66AE66AE66A23
:1002CC0001C0E1FF02C0E2FF3FC0E6FF02501B1875
:1002DC0002E11A50011802E13FC03EF01D9209D014
:1002EC00090E0126000E0222202A030E205CC6E312
:0402FC001D8212004D
:10030000EDDEEECF3EF00500EE50FD6EEE50FE6EDF
:08031000EE50FF6E1200120016
:100318001C8050DF0000010E1C14006E000E000B44
:10032800016E000E011802E1000E0018000ED8A49C
:10033800010E446E42DFFE0E1C168C702C0E446EAD
:10034800010E456E000E466E476ED8DE29DF0000AE
:0A035800FE0E1C161C82DDD71200F9
:100362001D6A350E1E6E000E1F6E1C6A239C2C9C8D
:04037200359C1200A4
:100376000F01386B396B3A6B3B6B3C6B956A836A42
:02038600120063
:10038800440ED56EC20ED66EF28EF28CD08EF28AE4
:06039800F184D58E120075
:10039E00630ED36EDFDFE8DFF0DF3F6A180E406ECC
:1003AE00030E416E000E426E000E436E60DF3F6A1A
:1003BE00EC0E406E010E416E000E426E000E436E4C
:1003CE0056DF3F6A340E406E020E416E000E426ED4
:1003DE00000E436E4CDF1C901C921C94F28ED0BE0D
:1003EE00F28C1D981D86080E196E1EC01AF01FC0C5
:1003FE001BF0000E1B5C02E1350E1A5C05E3230EAA
:10040E001A6E000E1B6E0AD0090E1A24006E000E14
:10041E001B20016E00C01AF001C01BF01AC0E9FFCC
:10042E001BC0EAFF010E006E3E0EE16E000EE26E84
:10043E00EECFE6FF0006FCE13EAC03D03EBE01D09F
:10044E0001D02ED03EC000F0070E001600C020F0E6
:10045E001950205C01E324D03EB60CD04ADF37DEC3
:10046E00D70EEF16280E3E14006E0050EF121DB67A
:10047E0001D03BD03EA803D03EBA01D011D03EA64B
:10048E000FD01D881AC021F01BC022F03EC000F014
:10049E00070E001600C019F01950000A01E107D02E
:1004AE001B501F1802E11E501A1801E0A2D71DA8FA
:1004BE001CD01D9621C01AF022C01BF01AC01EF0CF
:1004CE001BC01FF01AC0E9FF1BC0EAFF010E006E31
:1004DE003E0EE16E000EE26EEECFE6FF0006FCE190
:0E04EE003EAC03D03EBE01D0B9D77BD7FFD7BE
:020000040030CA
:0D000100231F3CFFBF81FF0FC00FE00F4029
:00000001FF
