:040000006DEF03F0AD
:1000080000C018F001C017F002C016F003C015F0C8
:10001800F2A457D0C20ED66EF29436A81AD0010EAA
:100028003B24006E000E3C20016E000E3D20026E47
:10003800000E3E20036E00C03BF001C03CF002C041
:100048003DF003C03EF03B503C103D103E10D8B48C
:1000580036983FA81AD0010E4424006E000E4520A1
:10006800016E000E4620026E000E4720036E00C08F
:1000780044F001C045F002C046F003C047F04450C8
:10008800451046104710D8B43F9848A81AD0010E1A
:100098004D24006E000E4E20016E000E4F20026EA1
:1000A800000E5020036E00C04DF001C04EF002C09B
:1000B8004FF003C050F04D504E104F105010D8B4B0
:1000C800489818C000F017C001F016C002F015C01B
:0400D80003F0110020
:0A00DC00210E0D6E0D2EFED712004E
:1000E6000F0E0C6E470E0D6E0D2EFED70C2EFCD786
:0600F600000000001200F2
:0600FC00000000001200EC
:0A01020034C0E9FF35C0EAFF120027
:10010C00000160BF02D0819601D0818660BD02D013
:10011C00819401D0818460BB02D0819201D0818214
:10012C0060B902D0819001D081801CB002D081884E
:10013C0001D08198818ADCDF819A60B702D08196E8
:10014C0001D0818660B502D0819401D0818460B3E6
:10015C0002D0819201D0818260B102D0819001D015
:10016C0081801CB002D0818801D08198818AC0DF47
:0E017C00819A1CA002D0B1DF01D0AADF1200D0
:0C018A001C905FC060F0BDDF1C80120004
:1001960006003090B3DFFDCFECFFFECFECFFFFCFC4
:0E01A600ECFF2C962CA82C9A2BB02C8A120061
:0C01B4000E0E0D6E0D2EFED70000120086
:1001C000086A096A100E0C6E0134083609360450AC
:1001D000085E0550D8A0053C095ED8B007D0045091
:1001E00008260550D8B0053C0926D89000360136BF
:0601F0000C2EEAD71200FC
:1001F60085DFFDCFECFFFECFECFFFFCFECFF2C86BB
:0402060006001200DC
:10020A002C9A34C0E1FF35C0E2FFE69858505910E5
:10021A005A105B1046E0FF0E5818006EFF0E591870
:10022A00016EFF0E5A18026EFF0E5B18036E00C0B5
:10023A0058F001C059F002C05AF003C05BF0010E39
:10024A000024046E000E0120056E000E0220066EC8
:10025A00000E0320076E04C058F005C059F006C00E
:10026A005AF007C05BF034C000F035C001F0050E4B
:10027A000024E16E000E0120E26E04C0E6FF05C014
:10028A00E6FF06C0E6FF07C0E6FF34C0E1FF35C05F
:10029A00E2FFE68634C0E1FF35C0E2FFE6882C883B
:0402AA002C8612008C
:1002AE000FD0800E586E19D0C00E586E16D0940E08
:1002BE00586E13D0D40E586E10D0800E586E0DD0CE
:1002CE005850010AEEE05850020AEEE05850030A68
:1002DE00EEE05850040AEEE0F0D75904006E585084
:1002EE00002600C058F000C060F009DF1C905C6A68
:1002FE005C505A24E96E000E5B20EA6EEE520BE063
:10030E005C505A24E96E000E5B20EA6EEECF5FF071
:0A031E0035DF5C2AEDD71C801200C9
:10032800C26A191C006E0050C1160F0EC012C08E92
:1003380058C000F000360090003600900050C212FD
:10034800C28034DFC282C2A201D0FDD7C4CF01F07F
:10035800006A00C059F001C05AF0C3500012000EE4
:10036800011200C059F001C05AF0C290000E0014EA
:10037800026E0150800B036E000E031802E1000E9E
:10038800021802E0596A5A6A59C000F05AC001F0CE
:02039800120051
:10039A00309AB2DE585207E02CA603D02C98EF9878
:1003AA000BD02C8601D02C962CB805D02CAA03D0C1
:0A03BA002C86308A01D006001200E4
:1003C4005C6A050E5C5C0AE25C505A24E16E000E25
:1003D4005B20E26E200EE66E5C2AF3D75C505A2452
:1003E400E16E000E5B20E26EE66A5C065C505A2405
:1003F4005D6E000E5B205E6E0A0E046E000E056ECE
:1004040058C000F059C001F0D9DE08C000F009C09E
:1004140001F0300E00265DC0E1FF5EC0E2FF00C0C7
:10042400E6FF0A0E046E000E056E58C000F059C0B7
:1004340001F0C4DE00C058F001C059F0000E0118EC
:1004440002E1000E001801E102D05C06CFD71200D1
:060454002B6A9FDE12007E
:10045A003092360E016E000E026E2B6A01C0E9FF61
:10046A0002C0EAFFEECF00F000BC2AD0538C5386BC
:10047A00010E0124E16E000E0220E26E54C0E6FF76
:10048A0055C0E6FF56C0E6FF57C0E6FF050E012439
:10049A00E16E000E0220E26EE66AE66AE66AE66A43
:1004AA0001C0E1FF02C0E2FF53C0E6FF0250351867
:1004BA0002E13450011802E153C02CF0309209D005
:1004CA00090E0126000E02222B2A030E2B5CC6E31C
:0404DA00308212005A
:1004DE00316A000E326E000E336E0E0E586E1DDF38
:1004EE0000C058F001C059F01D0E5A6E000E5B6E22
:1004FE0062DF31A011D0A7DF0000010E3114586E5B
:10050E005852010ED8A4000E586E5850000A000E14
:10051E00D8A4010E586E3ADF010E316E1D0E326EEA
:10052E00000E336E90DF0000010E3114586E5852DB
:10053E00010ED8A4000E586E5850000A000ED8A412
:10054E00010E586E23DF320E586E000E596E5A6E23
:0C055E005B6E54DE49DE0000C0D71200C6
:10056A00CBDDEECF2CF00500EE50FD6EEE50FE6EA8
:08057A00EE50FF6E12001200AA
:100582000900F5CFE6FF0006FBE10106F9E11200E2
:100592008C702C0E586E010E596E000E5A6E5B6EE8
:0A05A20033DE28DE0000F4D712005B
:1005AC00939A93989390939293949396819A81981B
:1005BC00819681948192819090DD8FDD8EDD818298
:1005CC008180818A95DD819A88DD818A91DD819A8D
:1005DC0084DD818A8DDD819A80DD8190818A88DD40
:1005EC00819A7BDD818A84DD819A81928186818AE0
:1005FC007FDD819A72DD81968180818A79DD819A95
:10060C008190818A75DD819A68DD818A71DD819A9C
:10061C008180818A6DDD819A60DD8190818A68DDBF
:10062C00819A8186818481828180818A61DD819A2F
:06063C0054DD1C801200D9
:10064200306A480E516E000E526E369C3F9C489C9A
:02065200120094
:1006540031A00ED032C053F033C054F0316A010ED1
:10066400586E010E596E53C05AF054C05BF01DDE33
:10067400140E586E000E596E5A6E5B6EC4DDB9DDF1
:060684000000E6D71200A1
:10068A000F01386B396B3A6B3B6B3C6B94843A8540
:06069A00956A836A12005C
:1006A000FF0E276EFF0E286EFF0E296EFF0E2A6EBC
:1006B000C26A191C006E0050C1160F0EC012C08E07
:0406C000C2801200E2
:1006C400440ED56EC20ED66EF28EF28CD08EF28AA5
:0606D400F184D58E120036
:1006DA0026EC04F0630ED36EAFDFD2DFEEDFDBDF92
:1006EA0060DF010E0001606F0CDD0C0E606F09DD2A
:1006FA00536A920E546E050E556E000E566E000E1B
:10070A00576EA6DE536ADE0E546E040E556E000E48
:10071A00566E000E576E9CDE536A540E546E060EC9
:10072A00556E000E566E000E576E92DEF28ED0BED9
:10073A00F28C30983086080E2F6E51C034F052C0B9
:10074A0035F0000E355C02E1480E345C05E3360EE6
:10075A00346E000E356E0AD0090E3424006E000E77
:10076A003520016E00C034F001C035F034C0E9FF15
:10077A0035C0EAFF010E006E2C0EE16E000EE26E2D
:10078A00EECFE6FF0006FCE12CAC03D02CBE01D074
:10079A0001D02ED02CC000F0070E001600C02BF09E
:1007AA002F502B5C01E324D02CB60CD0D9DEA4DC6C
:1007BA00D70EEF16280E2C14006E0050EF1230B62A
:1007CA0001D03BD02CA803D02CBA01D011D02CA632
:1007DA000FD0308834C02DF035C02EF02CC000F078
:1007EA00070E001600C02FF02F50000A01E107D0B3
:1007FA003550521802E15150341801E0A2D730A8FE
:10080A001CD030962DC034F02EC035F034C051F0D3
:10081A0035C052F034C0E9FF35C0EAFF010E006E60
:10082A002C0EE16E000EE26EEECFE6FF0006FCE152
:0E083A002CAC03D02CBE01D0B9D77BD7FFD792
:10084C0010EE19F0030E006E010E016E480EF66EDE
:0E085C00080EF76E000EF86EC1EC02F01200EE
:010848000FA0
:020849000000AD
:00000001FF
