:0400000010EF04F009
:1000080000C018F001C017F002C016F003C015F0C8
:10001800F2A473D0C20ED66EF2941EA81AD0010EA6
:100028002324006E000E2420016E000E2520026E8F
:10003800000E2620036E00C023F001C024F002C089
:1000480025F003C026F02350241025102610D8B41C
:100058001E9827A81AD0010E2C24006E000E2D2001
:10006800016E000E2E20026E000E2F20036E00C0BF
:100078002CF001C02DF002C02EF003C02FF02C5040
:100088002D102E102F10D8B4279830A81AD0010E92
:100098003524006E000E3620016E000E3720026EE9
:1000A800000E3820036E00C035F001C036F002C0E3
:1000B80037F003C038F03550361037103810D8B440
:1000C800309839A81AD0010E3E24006E000E3F2049
:1000D800016E000E4020026E000E4120036E00C02B
:1000E8003EF001C03FF002C040F003C041F03E5076
:1000F8003F1040104110D8B4399818C000F017C00C
:0C01080001F016C002F015C003F0110059
:06011400000000001200D3
:10011A000F0E0C6E470E0D6E0D2EFED70C2EFCD751
:06012A00000000001200BD
:0A013000210E0D6E0D2EFED71200F9
:10013A00000169BF02D0819601D0818669BD02D0D3
:10014A00819401D0818469BB02D0819201D08182DD
:10015A0069B902D0819001D0818049B002D08188EA
:10016A0001D08198818AD1DF819A69B702D08196BC
:10017A0001D0818669B502D0819401D0818469B3A6
:10018A0002D0819201D0818269B102D0819001D0DE
:10019A00818049B002D0818801D08198818AB5DFF7
:0E01AA00819A49A002D0B4DF01D0BDDF12005F
:0A01B8001AC0E9FF1BC0EAFF1200A5
:1001C20006004790F8DFFDCFECFFFECFECFFFFCF3C
:0E01D200ECFF489648A8489A4EB0488A1200A2
:0C01E0000E0E0D6E0D2EFED7000012005A
:0C01EC00499068C069F0A3DF4980120050
:1001F800086A096A100E0C6E013408360936045074
:10020800085E0550D8A0053C095ED8B007D0045058
:1002180008260550D8B0053C0926D8900036013686
:060228000C2EEAD71200C3
:06022E004E6AC8DF120059
:100234000001656B050E655D0AE265516325E16E9B
:10024400000E6421E26E200EE66E652BF3D7655135
:100254006325E16E000E6421E26EE66A650765516E
:100264006325666F000E6421676F0A0E046E000E2C
:10027400056E61C000F062C001F0BCDF08C000F090
:1002840009C001F0300E002666C0E1FF67C0E2FF3E
:1002940000C0E6FF0A0E046E000E056E61C000F099
:1002A40062C001F0A7DF00C061F001C062F0000E7F
:1002B400011802E1000E001801E102D06507CFD752
:0202C400120026
:1002C60078DFFDCFECFFFECFECFFFFCFECFF4886DB
:0402D600060012000C
:1002DA0010D0800E0001616F1AD0C00E616F17D066
:1002EA00940E616F14D0D40E616F11D0800E616FBD
:1002FA000ED000016151010AECE06151020AEDE001
:10030A006151030AEDE06151040AEDE0EFD762059D
:10031A00006E6151002600C061F000C069F008DF7C
:10032A004990656B65516325E96E000E6421EA6E9A
:10033A00EE520BE065516325E96E000E6421EA6E08
:0E034A00EECF68F04EDF652BEDD74980120034
:10035800489A1AC0E1FF1BC0E2FFE698000161510C
:1003680062116311641146E0FF0E6119006EFF0E01
:100378006219016EFF0E6319026EFF0E6419036E97
:1003880000C061F001C062F002C063F003C064F015
:10039800010E0024046E000E0120056E000E0220DE
:1003A800066E000E0320076E04C061F005C062F0FF
:1003B80006C063F007C064F01AC000F01BC001F06B
:1003C800050E0024E16E000E0120E26E04C0E6FF77
:1003D80005C0E6FF06C0E6FF07C0E6FF1AC0E1FF5A
:1003E8001BC0E2FFE6861AC0E1FF1BC0E2FFE688F9
:0603F8004888488612004F
:1003FE00C26A191C006E0050C1160F0EC012C08EBC
:10040E0061C000F000360090003600900050C2121D
:10041E00C280DFDEC282C2A201D0FDD7C4CF01F0FE
:10042E00006A00C062F001C063F0C3500012000EFB
:10043E00011200C062F001C063F0C290000E001401
:10044E00026E0150800B036E000E031802E1000EC7
:10045E00021803E00001626B636B62C000F063C0C0
:04046E0001F0120087
:10047200479AA1DE0001615307E048A603D04898DD
:10048200EF980BD0488601D0489648B805D048AAC4
:0C04920003D04886478A01D00600120003
:10049E008C702C0E0001616F010E626F000E636F87
:0C04AE00646F53DF09DF0000F3D7120079
:1004BA007EDEEECF48F00500EE50FD6EEE50FE6E89
:0804CA00EE50FF6E120012005B
:1004D2000900F5CFE6FF0006FBE10106F9E1120093
:1004E200436A446A0E0E0001616F88DF00C04AF061
:1004F20001C04BF04450000A02E1000E431813E021
:1005020095DE00004450000A02E1000E4318010E7D
:10051200D8A4000E0001616F6151000A000ED8A438
:10052200010E616FA5DF4AC043F04BC044F07EDE8E
:1005320000004450000A02E1000E4318000ED8A445
:10054200010E0001616F6153010ED8A4000E616FAC
:100552006151000A000ED8A4010E616F89DF320ECC
:10056200616F000E626F636F646FF5DEABDE0000D9
:04057200B9D71200E3
:10057600440ED56EC20ED66EF28EF28CD08EF28AF4
:06058600F184D58E120085
:10058C00FF0E516EFF0E526EFF0E536EFF0E546E29
:10059C00C26A191C006E0050C1160F0EC012C08E1C
:0405AC00C2801200F7
:1005B000476A390E1C6E000E1D6E1E9C279C309CD7
:0405C000399C120050
:1005C4000F01386B396B3A6B3B6B3C6B94843A8507
:0A05D40094863A87956A836A120044
:1005DE00456A466A0F0E0001616F0ADF00C04CF0DB
:1005EE0001C04DF04650000A02E1000E451813E01E
:1005FE0017DE00004650000A02E1000E4518010EFB
:10060E00D8A4000E0001616F6151000A000ED8A43B
:10061E00010E616F27DF4CC045F04DC046F000DE85
:10062E0000004650000A02E1000E4518000ED8A444
:10063E00010E0001616F6153010ED8A4000E616FAF
:10064E006151000A000ED8A4010E616F0BDF320E4D
:10065E00616F000E626F636F646F77DE2DDE0000D8
:04066E00B9D71200E6
:1006720047921E0E016E000E026E4E6A01C0E9FF25
:1006820002C0EAFFEECF00F000BC2AD0558C55869E
:10069200010E0124E16E000E0220E26E56C0E6FF5A
:1006A20057C0E6FF58C0E6FF59C0E6FF050E012419
:1006B200E16E000E0220E26EE66AE66AE66AE66A29
:1006C20001C0E1FF02C0E2FF55C0E6FF02501B1865
:1006D20002E11A50011802E155C048F0479209D0D0
:1006E200090E0126000E02224E2A040E4E5CC6E3BB
:0406F2004782120029
:1006F600939A93989390939293949396819A8198D0
:10070600819681948192819005DD04DD03DD8182ED
:100716008180818AFCDC819AFDDC818AF8DC819A01
:10072600F9DC818AF4DC819AF5DC8190818AEFDC40
:10073600819AF0DC818AEBDC819A81928186818ABA
:10074600E6DC819AE7DC81968180818AE0DC819A09
:100756008190818ADCDC819ADDDC818AD8DC819A11
:100766008180818AD4DC819AD5DC8190818ACFDC34
:10077600819A8186818481828180818AC8DC819A7E
:06078600C9DC49801200ED
:10078C004450000A02E1000E431819E043C055F032
:10079C0044C056F0436A446A55C061F056C062F0DA
:1007AC00570E0001636F000E646F3EDD010E616F2A
:1007BC00010E626F570E636F000E646F88DD46503A
:1007CC00000A02E1000E451819E0000145C055F081
:1007DC0046C056F0456A466A55C061F056C062F094
:1007EC00570E636F000E646F1FDD020E616F010EFA
:1007FC00626F570E636F000E646F69DD0001140E9B
:10080C00616F000E626F636F646FA0DD56DD0000D8
:04081C00B7D7120038
:10082000D1EC04F0630ED36EC3DECCDEA4DEAEDE0C
:1008300062DF010E0001696F80DC0C0E696F7DDCE8
:10084000556A9E0E566E040E576E000E586E000EC0
:10085000596E0FDF556AE20E566E040E576E000E8B
:10086000586E000E596E05DF556ADE0E566E050E87
:10087000576E000E586E000E596EFBDE556A8C0ED8
:10088000566E070E576E000E586E000E596EF1DE52
:10089000F28ED0BEF28C47984786080E426E1CC07E
:1008A0001AF01DC01BF0000E1B5C02E1390E1A5C31
:1008B00005E31E0E1A6E000E1B6E0AD0090E1A24D6
:1008C000006E000E1B20016E00C01AF001C01BF06C
:1008D0001AC0E9FF1BC0EAFF010E006E480EE16E70
:1008E000000EE26EEECFE6FF0006FCE148AC03D05E
:1008F00048BE01D001D02ED048C000F0070E00162F
:1009000000C04EF042504E5C01E324D048B60CD0FB
:10091000D4DD52DCD70EEF16280E4814006E0050BE
:10092000EF1247B601D03BD048A803D048BA01D057
:1009300011D048A60FD047881AC04FF01BC050F006
:1009400048C000F0070E001600C042F04250000AF6
:1009500001E107D01B501D1802E11C501A1801E0DC
:10096000A2D747A81CD047964FC01AF050C01BF022
:100970001AC01CF01BC01DF01AC0E9FF1BC0EAFF23
:10098000010E006E480EE16E000EE26EEECFE6FF45
:100990000006FCE148AC03D048BE01D0B9D77BD7F4
:0209A000FFD77F
:1009A20010EE19F0010E006E010E016E060EF66ECB
:0E09B200000EF76E000EF86E69EC02F01200F7
:010006000FEA
:020000040030CA
:0D000100231F3CFFBF81FF0FC00FE00F4029
:00000001FF
